:100000000C9464000C948C000C948C000C948C0068
:100010000C948C000C948C000C948C000C948C0030
:100020000C948C000C948C000C948C000C948C0020
:100030000C948C000C948C000C948C000C948C0010
:100040000C9437010C948C000C946B030C94AE034D
:100050000C948C000C948C000C948C000C948C00F0
:100060000C948C000C948C0000000007000201002E
:100070000003040600000000000000000102040864
:100080001020408001020408102001020408102002
:10009000040404040404040402020202020203032E
:1000A00003030303000000002300260029000000D2
:1000B0000000250028002B0000000000240027007D
:1000C0002A00E3007304E90011241FBECFEFD8E03B
:1000D000DEBFCDBF11E0A0E0B1E0E6EFF1E102C08C
:1000E00005900D92A033B107D9F711E0A0E3B1E07C
:1000F00001C01D92A43FB107E1F710E0C6ECD0E0CB
:1001000004C02297FE010E94C608C23CD107C9F76D
:100110000E94AE040C94EE080C9400008091020141
:1001200090910301909301018093000182E00E946D
:10013000A80290930301809302010197D1F480916A
:10014000000190910101892BA1F481E090E02091C0
:100150003B0130913C01232B11F080E090E0909323
:100160003C0180933B016AE070E080E090E00C94F9
:10017000B201089561E08DE00E943C0260E082E0FF
:100180000E943C0240E855E260E070E086E491E0C5
:100190000C94E90360913701709138018091390125
:1001A00090913A0120EA3FE040E050E00E94A2082E
:1001B000643F71408105910510F460E001C061E089
:1001C0008DE00C9478026AE071E080E391E00C9499
:1001D000290580E391E00C94BB04CF93DF93CDB766
:1001E000DEB727970FB6F894DEBF0FBECDBF0E94D3
:1001F0008E0086E491E00E94D10218161906ACF434
:1002000066E471E0CE0101960E944906BE016F5F6F
:100210007F4F80E391E00E943F05CE0101960E944E
:10022000BB0480E391E00E94BA050E9481016093C3
:100230003701709338018093390190933A016EE051
:1002400071E080E391E00E949705882319F00E94F5
:10025000CA0004C060E08DE00E94780227960FB6C5
:10026000F894DEBF0FBECDBFDF91CF9108951F92EE
:100270000F920FB60F9211242F933F938F939F935A
:10028000AF93BF9380913E0190913F01A0914001B7
:10029000B091410130913D0123E0230F2D3720F42F
:1002A0000196A11DB11D05C026E8230F0296A11DD0
:1002B000B11D20933D0180933E0190933F01A09397
:1002C0004001B09341018091420190914301A0917E
:1002D0004401B09145010196A11DB11D80934201D9
:1002E00090934301A0934401B0934501BF91AF9116
:1002F0009F918F913F912F910F900FBE0F901F9064
:1003000018952FB7F89460913E0170913F0180914C
:100310004001909141012FBF08953FB7F89480911B
:10032000420190914301A0914401B091450126B54D
:10033000A89B05C02F3F19F00196A11DB11D3FBF1D
:10034000BA2FA92F982F8827820F911DA11DB11DAB
:10035000BC01CD0142E0660F771F881F991F4A95A7
:10036000D1F70895CF92DF92EF92FF92CF93DF9370
:100370006B017C010E948D01EB01C114D104E104E9
:10038000F10479F00E948D016C1B7D0B683E734077
:10039000A0F381E0C81AD108E108F108C851DC4F88
:1003A000ECCFDF91CF91FF90EF90DF90CF90089549
:1003B000789484B5826084BD84B5816084BD85B540
:1003C000826085BD85B5816085BDEEE6F0E0808107
:1003D00081608083E1E8F0E0108280818260808328
:1003E000808181608083E0E8F0E0808181608083AB
:1003F000E1EBF0E0808184608083E0EBF0E08081DD
:1004000081608083EAE7F0E080818460808380817E
:100410008260808380818160808380818068808326
:100420001092C1000895833081F028F4813099F052
:100430008230A1F008958630A9F08730B9F0843079
:10044000D1F4809180008F7D03C0809180008F77F0
:1004500080938000089584B58F7702C084B58F7D26
:1004600084BD08958091B0008F7703C08091B00063
:100470008F7D8093B0000895CF93DF9390E0FC01CF
:10048000E458FF4F2491FC01E057FF4F84918823EB
:1004900061F190E0880F991FFC01E854FF4FC5916E
:1004A000D491FC01E255FF4FA591B491611109C0AF
:1004B0009FB7F8948881209582238883EC912E231E
:1004C0000BC0623061F49FB7F8943881822F809519
:1004D00083238883EC912E2B2C939FBF06C08FB76C
:1004E000F894E8812E2B28838FBFDF91CF91089558
:1004F0001F93CF93DF93282F30E0F901E859FF4F86
:100500008491F901E458FF4FD491F901E057FF4F6E
:10051000C491CC23C9F0162F81110E941302EC2F35
:10052000F0E0EE0FFF1FE255FF4FA591B4918FB79A
:10053000F894111105C09C91ED2FE095E92302C0BC
:10054000EC91ED2BEC938FBFDF91CF911F9108952C
:10055000CF93DF93282F30E0F901E859FF4F8491C2
:10056000F901E458FF4FD491F901E057FF4FC491CE
:10057000CC2391F081110E941302EC2FF0E0EE0FDA
:10058000FF1FEC55FF4FA591B491EC91ED2381E055
:1005900090E021F480E002C080E090E0DF91CF9114
:1005A0000895FC0124853585F901E05CFF4F8081C9
:1005B0009181329620813181821B930B8F73992711
:1005C0000895DC011C96ED91FC911D97DF01A05C64
:1005D000BF4F2D913C91119712968D919C9111973F
:1005E0002817390739F08D919C91E80FF91F808108
:1005F00090E008958FEF9FEF0895FC01A485B585E5
:10060000FD01E05CFF4F2081318132968081918134
:100610002817390779F080819181A80FB91F8C9133
:10062000208131812F5F3F4F2F7333273183208308
:1006300090E008958FEF9FEF0895FC0181A188233A
:1006400029F0A489B5898C9186FFFBCF11A208956A
:100650000F931F93CF93DF93FC01A685B7858D0180
:10066000005C1F4FE8018881998101968F7399275B
:10067000AD014E5B5F4FEA012881398182179307F4
:10068000D1F3E80128813981A20FB31F6C93A685AD
:10069000B785A05CBF4F11969C938E93A689B789AE
:1006A0002C9181E090E0078C02C0880F991F0A947A
:1006B000E2F7822B8C9381E081A30488F589E02DF9
:1006C00080818064808381E090E0DF91CF911F91F1
:1006D0000F91089508951F920F920FB60F92112453
:1006E0002F934F935F938F939F93EF93FF938091FB
:1006F000C00082FD1CC02091C6008091EC01909149
:10070000ED0101968F7399274091EE015091EF0111
:100710008417950771F0E091EC01F091ED01E4553B
:10072000FE4F20839093ED018093EC0102C08091F5
:10073000C600FF91EF919F918F915F914F912F9103
:100740000F900FBE0F901F90189586E491E00E94C5
:10075000D102892B11F00C946A0308951F920F9215
:100760000FB60F9211242F933F938F939F93EF9384
:10077000FF932091A8013091A9018091AA01909145
:10078000AB012817390731F48091C1008F7D809328
:10079000C10014C0E091AA01F091AB01E859FE4FED
:1007A00020818091AA019091AB0101968F739927C6
:1007B0009093AB018093AA012093C600FF91EF9123
:1007C0009F918F913F912F910F900FBE0F901F908F
:1007D0001895CF92DF92EF92FF920F931F93CF93D2
:1007E000DF93EC016A017B01411581EE5807610539
:1007F000710511F1EC89FD8981E090E008A002C04B
:10080000880F991F0A94E2F7808360E079E08DE316
:1008100090E0A70196010E94A20889019A01015067
:1008200011092109310936952795179507959801E2
:10083000011580E11807A8F0EC89FD89108260E8B5
:1008400074E88EE190E0A70196010E94A208DA0107
:10085000C9010197A109B109B695A7959795879503
:100860009C01E889F9893083EA89FB89208319A2F0
:10087000EE89FF89408181E090E09C010C8C02C0F0
:10088000220F331F0A94E2F7242B2083EE89FF897D
:1008900040819C010D8C02C0220F331F0A94E2F7A5
:1008A000242B2083EE89FF8940819C010E8C02C09D
:1008B000220F331F0A94E2F7242B2083EE89FF894D
:1008C00020810F8C02C0880F991F0A94E2F780954F
:1008D00082238083DF91CF911F910F91FF90EF9042
:1008E000DF90CF900895E6E4F1E01382128288EE63
:1008F00093E0A0E0B0E084839583A683B78384E28D
:1009000091E0918380838CEA91E09587848788E6E3
:1009100091E09787868785EC90E0918B808B84ECC3
:1009200090E0938B828B80EC90E0958B848B81ECB4
:1009300090E0978B868B82EC90E0918F808F86EC95
:1009400090E0938F828F84E0848F83E0858F87E0AF
:10095000868F85E0878F81E080A308950E94D8016B
:100960000E94BA00C5EAD3E00E94ED002097E1F3AF
:100970000E94A503F9CFFC01808191810C9420078E
:10098000CF93DF93EC0188819981009711F00E9449
:100990002007198218821D821C821B821A82DF9115
:1009A000CF9108950F931F93CF93DF93EC018B01A9
:1009B0006F5F7F4F888199810E94B807009731F05F
:1009C000998388831B830A8381E001C080E0DF91E3
:1009D000CF911F910F910895CF93DF93EC01888100
:1009E0009981892B29F08A819B818617970760F46A
:1009F000CE010E94D204882341F08C819D81892BF5
:100A000019F4E881F981108281E0DF91CF91089596
:100A1000EF92FF920F931F93CF93DF93EC017B0133
:100A20008A01BA010E94EC04811104C0CE010E9427
:100A3000C00407C01D830C83B701888199810E947F
:100A4000E408CE01DF91CF911F910F91FF90EF90BD
:100A50000895FC0111821082138212821582148281
:100A600016826115710551F0FB0101900020E9F734
:100A70003197AF01461B570B0C9408050895CF938F
:100A8000DF93EC01FB018617970761F060817181AC
:100A90006115710529F0448155810E94080502C045
:100AA0000E94C004CE01DF91CF910895EF92FF9292
:100AB0000F931F93CF93DF93FC0124813581611540
:100AC000710511F480E019C041155105A9F07B01B1
:100AD000EC018A01020F131FB8010E94EC04882365
:100AE00089F3288139818C819D81B701820F931F01
:100AF0000E94E4081D830C8381E0DF91CF911F9158
:100B00000F91FF90EF900895CF93DF9300D0CDB772
:100B1000DEB769831A8241E050E0BE016F5F7F4F0C
:100B20000E9456050F900F90DF91CF910895DC0140
:100B300014962D913C911597232B31F421E06115EA
:100B40007105B1F0FB0107C06115710541F4DC01CD
:100B5000ED91FC9121E08081882351F008C0FC01D7
:100B6000808191810E94DB0821E0892B09F020E03F
:100B7000822F0895AF92BF92CF92DF92EF92FF92B1
:100B80000F931F93CF93DF93DC01CD90DC901197EF
:100B9000C114D10409F442C01496CD91DC9115978B
:100BA0002097E1F18C0156017501BFEFAB1ABB0A2A
:100BB000F7018081992787FD90950E94CA08892BAB
:100BC00099F72197CC0DDD1D8881992787FD909598
:100BD0000E94CA08892B91F4AE014F5F5F4F4E19F6
:100BE0005F09D80115965C934E931497CE14DF04D9
:100BF00050F4B701C6010E94D20805C0CE15DF052A
:100C000058F32197E1CFD801ED91FC9111971496FB
:100C10008D919C911597E80FF91F1082DF91CF916C
:100C20001F910F91FF90EF90DF90CF90BF90AF900A
:100C300008950F931F93CF93DF93EC010E948101DE
:100C4000688779878A879B87E881F9810680F781A1
:100C5000E02DCE01099597FF17C00E9481010885FC
:100C600019852A853B85DC01CB01801B910BA20BEA
:100C7000B30B0C811D812E813F8180179107A20744
:100C8000B30710F38FEF9FEFDF91CF911F910F917B
:100C900008950F931F93CF93DF93EC018B016FE1C6
:100CA00071E00E942905C8010E94190697FD05C040
:100CB000682FCE010E948405F6CFCE01DF91CF913F
:100CC0001F910F910895CF92DF92EF92FF920F93B1
:100CD0001F93CF93DF936C01EB017B01E40EF51EB4
:100CE00000E010E0CE15DF0561F06991D601ED91CD
:100CF000FC910190F081E02DC6010995080F191FA4
:100D0000F1CFC801DF91CF911F910F91FF90EF902C
:100D1000DF90CF900895CF93DF938230910510F448
:100D200082E090E0E091F201F091F30120E030E008
:100D3000C0E0D0E0309711F1408151814817590748
:100D4000C0F04817590761F482819381209719F008
:100D50009B838A832BC09093F3018093F20126C07A
:100D60002115310519F04217530718F49A01BE01F5
:100D7000DF01EF010280F381E02DDCCF2115310589
:100D800009F1281B390B2430310590F412968D910E
:100D90009C9113976115710521F0FB019383828368
:100DA00004C09093F3018093F201FD01329644C098
:100DB000FD01E20FF31F81939193225031092D938E
:100DC0003C933AC02091F0013091F101232B41F482
:100DD00020910601309107013093F1012093F00139
:100DE00020910401309105012115310541F42DB701
:100DF0003EB74091080150910901241B350BE09149
:100E0000F001F091F101E217F307A0F42E1B3F0B64
:100E10002817390778F0AC014E5F5F4F241735076C
:100E200048F04E0F5F1F5093F1014093F001819302
:100E3000919302C0E0E0F0E0CF01DF91CF910895FF
:100E40000F931F93CF93DF93009709F48CC0FC019D
:100E50003297138212820091F2011091F301011571
:100E6000110581F420813181820F931F2091F001BF
:100E70003091F1012817390779F5F093F101E093EA
:100E8000F00171C0D80140E050E0AE17BF0750F448
:100E900012962D913C911397AD012115310509F161
:100EA000D901F3CF9D01DA013383228360817181FF
:100EB000860F971F8217930769F4EC012881398107
:100EC000260F371F2E5F3F4F318320838A819B81FE
:100ED00093838283452B29F4F093F301E093F2018D
:100EE00042C01396FC93EE931297ED0149915991EC
:100EF0009E01240F351FE217F30771F48081918161
:100F0000840F951F029611969C938E9382819381F4
:100F100013969C938E931297E0E0F0E0D80112961E
:100F20008D919C911397009719F0F8018C01F6CFE1
:100F30008D919C9198012E5F3F4F820F931F2091BE
:100F4000F0013091F1012817390769F4309729F43D
:100F50001092F3011092F20102C0138212821093D8
:100F6000F1010093F001DF91CF911F910F9108954E
:100F70006F927F928F929F92AF92BF92CF92DF92A9
:100F8000EF92FF920F931F93CF93DF93EC010097A3
:100F900089F4CB01DF91CF911F910F91FF90EF90DA
:100FA000DF90CF90BF90AF909F908F907F906F9089
:100FB0000C948B06FC01E60FF71F9C0122503109AF
:100FC000E217F30708F4ADC0D9010D911C911197F8
:100FD00006171707B0F00530110508F4A0C0C801C6
:100FE00004978617970708F49AC002501109061B48
:100FF000170B019311936D937C93CF010E942007EF
:101000008EC05B01A01AB10A4C01800E911EA09106
:10101000F201B091F30140E050E0E12CF12C109787
:1010200009F44BC0A815B905D9F56D907C901197BE
:10103000630182E0C80ED11CCA14DB0488F1A3014D
:101040004A195B096A0182E0C80ED11C85E0C81606
:10105000D10460F012968D919C91139793838283B3
:1010600051834083D9016D937C930CC00E5F1F4F59
:10107000C301800F911FF901918380831296ED9136
:10108000FC911397E114F10431F0D7011396FC930E
:10109000EE93129744C0F093F301E093F2013FC046
:1010A0008D919C9111974817590708F4AC017D0167
:1010B00012960D90BC91A02DB2CF8091F00190912D
:1010C000F10188159905E1F446175707C8F4809196
:1010D000040190910501009741F48DB79EB74091AE
:1010E000080150910901841B950BE817F907C8F412
:1010F000F093F101E093F001F901718360830FC077
:10110000CB010E948B067C01009759F0A801BE011B
:101110000E94D208CE010E942007C70104C0CE0160
:1011200002C080E090E0DF91CF911F910F91FF907E
:10113000EF90DF90CF90BF90AF909F908F907F9077
:101140006F900895A1E21A2EAA1BBB1BFD010DC0D2
:10115000AA1FBB1FEE1FFF1FA217B307E407F50767
:1011600020F0A21BB30BE40BF50B661F771F881F43
:10117000991F1A9469F760957095809590959B01D9
:10118000AC01BD01CF010895EE0FFF1F0590F49152
:10119000E02D099491111FC0803219F089508550BB
:1011A000D0F70895FB01DC0102C001900D9241507F
:1011B0005040D8F70895FB01DC018D910190801912
:1011C0000110D9F3990B0895FB01DC0101900D92F8
:1011D0000020E1F7089599278827089510E0C6ECCC
:1011E000D0E004C0FE010E94C6082296C83CD10788
:0611F000C9F7F894FFCFDF
:1011F600010001000000F40180006F666600564998
:101206004E47415F4F535452415F4E45445245004D
:101216000000000028036306D102FD02E1021D035F
:00000001FF
